:020000040800F2
:1000000000500020A1210008E9210008E921000892
:10001000E9210008E9210008E921000800000000AA
:10002000000000000000000000000000E9210008BE
:10003000E921000800000000E92100081F1F000856
:10004000E9210008E9210008E9210008E921000868
:10005000E9210008E9210008112000081720000804
:100060001D2000082320000829200008E92100089D
:10007000E9210008E9210008E9210008E921000838
:10008000E9210008E9210008E9210008E921000828
:10009000E9210008E9210008E92100082F200008D3
:1000A000E9210008B5220008E9210008E92100083B
:1000B000C5220008D5220008E5220008A123000877
:1000C000AD230008B9230008C5230008E921000872
:1000D000E92100080D250008252500083D25000818
:1000E0004520000895210008E921000800000000D3
:1000F0000000000000000000000000000000000000
:0C01000000000000000000005FF808F1A3
:10010C0010B5054C237833B9044B13B10448AFF345
:10011C0000800123237010BD10000020000000009F
:10012C00982600080C4B43B10C4810B50C49AFF3A2
:10013C0000800C48036823B910BD0A48036833B922
:10014C007047094B002BF7D0BDE810401847064B01
:10015C00002BF5D0184700BF0000000098260008BF
:10016C0014000020100000200000000008B5012140
:10017C00112002F0EBF9BDE808400121112002F03A
:10018C001FBA08B50021112002F01AFA642002F0FF
:10019C0037FA1120012102F013FABDE808404FF4A0
:1001AC00C87002F02DBA4FF4803310B594B0012210
:1001BC000B930021022412934FF4E0130AA80A9225
:1001CC000C910E921194139301F092F800B1FEE78A
:1001DC000F2305934FF4806307900990214605A8DF
:1001EC000694089301F04CFA00B1FEE71223019338
:1001FC004FF40043049001A8039301F0EBFA04467A
:10020C0000B1FEE701F0E0FA4FF47A73B0FBF3F0C3
:10021C0000F0A2F9042000F0C5F9224621464FF067
:10022C00FF3000F057F914B010BDB0F86A3001334C
:10023C0003F03F03A0F86A30B0F86A30B0F86800F9
:10024C009BB298424FF0FF3018BF00207047B0F8B7
:10025C00F430B0F8F600181A00F03F007047B0F810
:10026C00F430B0F8F6209BB293421ABFD0F8F030BD
:10027C00985C4FF0FF307047B0F8F420B0F8F630CF
:10028C0092B29A421FBFD0F8F020D25C013303F037
:10029C003F031ABFA0F8F63010464FF0FF307047FE
:1002AC00012310B5B0F8FC400374E31803F03F03CE
:1002BC00B0F8FE2092B29342FAD0D0F8F820115543
:1002CC0000F19404A0F8FC30204602F07BF818B939
:1002DC000249204602F088F8012010BD37020008C0
:1002EC00037C33B1B0F8FC20B0F8FE309BB29A42DC
:1002FC00FAD1704708B5044B2BB10448FFF7A7FFA0
:10030C0008B1AFF3008008BD000000002C000020F5
:10031C0000F11103C0F8F030002300F15102A0F8F5
:10032C00F430A0F8F630C0F8F820A0F8FC30A0F8B3
:10033C00FE30704738B5002343604FF47A73836006
:10034C000F4B044603600F4B0D4698420BD10E4BDE
:10035C009A7ADB7A80F8ED2080F8EC302046FFF7B3
:10036C00D7FF204638BD0949284601F0DBFE084975
:10037C0084F8ED00284601F0D5FE84F8EC00EDE79A
:10038C009C2800082C00002070280008F827000882
:10039C003428000801490248FFF7CCBF003801405F
:1003AC002C0000202DE9F04106460D460C4601EBD1
:1003BC0002084445A4EB050707D0336814F8011B69
:1003CC001B68304698470028F3D13846BDE8F081C9
:1003DC00836810B5044613B10322014698472046A2
:1003EC0010BD01F0E2BD7047704708B5032000F066
:1003FC005FF8BDE80840FFF7F4BF000008B5FFF751
:10040C00F3FFFFF7B3FE044CFFF7BBFE002CFBD051
:10041C00FFF770FFF8E700BF01030008704700000A
:10042C0038B50E4B054618784FF47A73B3FBF0F3DE
:10043C000B4A1068B0FBF3F000F08EF8044658B984
:10044C000F2D09D8024629464FF0FF3000F042F834
:10045C00044B20461D6038BD012038BD040000202F
:10046C000C00002008000020074A08B51368032080
:10047C0043F01003136000F01BF80F20FFF7D0FFC0
:10048C00FFF7CCFF002008BD00200240034A044BBC
:10049C0011681B780B441360704700BF7803002071
:1004AC0004000020014B1868704700BF780300203F
:1004BC00074A0002D36800F4E06023F4E0631B04F5
:1004CC001B0C43F0BF6343F400330343D36070470A
:1004DC0000ED00E0174B30B5DC68C4F30224C4F126
:1004EC000703251D042B28BF0423062D4FF00105FF
:1004FC0098BF002405FA03F303F1FF3388BF033CD4
:10050C001940A14005FA04F4013C2240002842EABB
:10051C0001024FEA0212A9BF00F16040064BD2B2B1
:10052C0000F56140BBBF00F00F00D2B280F8002391
:10053C001A5430BD00ED00E014ED00E0002808DB9B
:10054C000123420900F01F0003FA00F0014B43F8AD
:10055C002200704700E100E00138B0F1807F0AD240
:10056C00F021064B064A586082F82310002007221F
:10057C0098601A6070470120704700BF10E000E0DF
:10058C0000ED00E0002809DB0122430900F01F0008
:10059C0002FA00F0024A603342F82300704700BFB1
:1005AC0000E100E0044B04281A680CBF42F004027E
:1005BC0022F004021A60704710E000E0704708B5A2
:1005CC00FFF7FCFF08BD000090F8213010B5022B9E
:1005DC0003D004238363012010BD03681A6822F042
:1005EC000E021A601A6822F001021A60184A93422D
:1005FC001FD0143293421ED0143293421DD01432A9
:10060C0093421DD0143293421DD0143293420CBF2E
:10061C004FF480134FF080730E4A00245360012373
:10062C0080F82130436B80F820407BB198472046FE
:10063C0010BD0123F0E71023EEE74FF48073EBE7D6
:10064C004FF48053E8E74FF48033E5E7184610BDCC
:10065C0008000240000002402DE9F74F0022164628
:10066C00654BDFF8A4E1DFF8A4C14FF001080C687A
:10067C0008FA06F808EA0404A0457FD14D68122D4B
:10068C0000F0AF8000F28880022D00F0A7807CD8AB
:10069C00002D00F08E80012D00F09E804FF00F0990
:1006AC00FF2C93BF824606F18045083DD0F800B080
:1006BC0092BFB500D0F804B0AD0009FA05F82BEAEA
:1006CC00080802FA05F588BF00F1040A48EA050596
:1006DC00CAF80050D1F804A01AF0805F4ED0474DF4
:1006EC00464FAD6926F0030845F00105BD61BD69B3
:1006FC0008F1804805F00105019508F5803806F0F1
:10070C00030B019D4FEA8B0BD8F8085009FA0BF933
:10071C0025EA09093A4DA84268D005F58065A8423A
:10072C0066D005F58065A84264D005F58065A842C1
:10073C000CBF0325042505FA0BF545EA0905C8F895
:10074C0008501D681AF4803F14BF2543A5431D6053
:10075C005D681AF4003F14BF2543A5435D609D6896
:10076C001AF4801F14BF2543A5439D60DD681AF45D
:10077C00001F14BF2C4325EA0404DC600136102E44
:10078C007FF473AF03B0BDE8F08F032D22D0112D91
:10079C0084D1CA68043281E71A4FBD4209D012D8FD
:1007AC00DFF86C904D4504D009F580394D457FF448
:1007BC0075AF8A68C2B1012A0CBFC0F81080C0F8AE
:1007CC00148008226AE77545F3D06545F1D0DFF84F
:1007DC004490EBE7002261E7CA685FE7CA68083219
:1007EC005CE7CA680C3259E7042257E70025A2E7F8
:1007FC000125A0E702259EE70004014000100240FD
:10080C0000080140000021100000311000003210DF
:10081C0000001110000022100AB101617047090498
:10082C00FBE7000008B5044B5969014202D058613E
:10083C0001F0D2FB08BD00BF0004014037B590F8B1
:10084C003D40282C34D1002930D0002A2ED090F8ED
:10085C003C40012C2CD00124056880F83C402C68CD
:10086C00E4075EBF2C6844F001042C602C6824F46F
:10087C0000642C60292480F83D40202480F83E4000
:10088C00002404644285C362438D019403856B6923
:10089C0041620193AB6980F83C4020460193019B77
:1008AC006B6843F4E0636B6003B030BD0120FBE781
:1008BC000220F9E737B590F83D40282C34D10029B7
:1008CC0030D0002A2ED090F83C40012C2CD00124A2
:1008DC00056880F83C402C68E4075EBF2C6844F047
:1008EC0001042C602C6824F400642C602A2480F809
:1008FC003D40202480F83E40002404644285C362BD
:10090C00438D019403856B6941620193AB6980F857
:10091C003C4020460193019B6B6843F4E0636B60A1
:10092C0003B030BD0120FBE70220F9E790F83D3021
:10093C00202B14D1282380F83D30036800201A683E
:10094C00D2075EBF1A6842F001021A601A6842F4BC
:10095C0080621A605A6842F440725A6070470220F2
:10096C0070477047704770477047704790F83D303C
:10097C0010B5293B012B0446036839D800220263C9
:10098C00282280F83D201A6822F400621A605A6806
:10099C0012F4006254D05A68606B22F400625A6000
:1009AC0090F82130012B394B31D04363FFF70CFE0B
:1009BC0050B12268606B136823F00103136020238D
:1009CC0084F83D30436B984794F83D30282B0ED17A
:1009DC00236C5B070BD52E4B2022E36200232046B1
:1009EC00236384F83D2084F83E3001F0A0FC10BD58
:1009FC0090F83D20602A05D05A6812055CBF202271
:100A0C0080F83D200022226384F83E20BBE7A06BD7
:100A1C004363FFF7D9FD0028D6D0226853695806E6
:100A2C0004D5636A1269591C61621A702268A06B42
:100A3C00136823F001031360202384F83D30C1E7D1
:100A4C0094F83D10602914D1202184F83D102264C3
:100A5C005A69510604D5626A1B69511C6162137094
:100A6C0022682046136823F001031360FFF77DFF13
:100A7C00AAE75A69520604D5626A1B69511C616265
:100A8C001370204601F080FC9EE700BFB1120008F5
:100A9C000000FFFF0368F0B59D6959695A6890F82A
:100AAC003E408DB0E4B2102C02D0402C40F0568267
:100ABC0011F0011F66D0970564D590F83E40402C8C
:100ACC0043D1046D002C3BD1446C04F0FE041C613A
:100ADC00944E954C2E400C40002E00F0A281934D6C
:100AEC000D40002D00F06981550540F16681002C08
:100AFC0040F0638190F83D20058D90F83E10D2B205
:100B0C00C9B2C46A002D40F01781212A40F0168129
:100B1C00042C00F06F81082C00F06C8114F5803FE0
:100B2C0000F068815A6822F4E0625A601123036372
:100B3C0080F83E50202380F83D30FFF712FF18E17B
:100B4C00446C44F00104E4B2C1E70469B4F5804F8D
:100B5C0005D190F83D40212C446CF2D1B5E7046DE1
:100B6C0034B9446CE41104F0060444F0F004AEE72C
:100B7C00046D012CACD1446CE41104F0060444F077
:100B8C00F104A4E76A4C0C401CB1960501D5446CE9
:100B9C00D9E7684C0C40002C9AD0940598D590F865
:100BAC003E40C66AD0F830E090F83D70E4B2222F97
:100BBC0040F0AF80076D47B9402C06D100975C69B7
:100BCC0000949C690094009C82E7046D8CB90769C1
:100BDC00B7F5404F0DD101945C6901949C69019467
:100BEC00019C1C6844F480741C60046D0134046521
:100BFC006EE7448DA4B254B902945C6902949C696A
:100C0C000294029C1C6844F400741C6019E0448D2E
:100C1C00A4B2012C42D116F5803F1BD11C6824F4E0
:100C2C0080641C605C6814F400640CD01C6824F4B0
:100C3C0080641C60002403945C6903949C69039495
:100C4C00039C0024D3E704945C6904949C69049489
:100C5C00049CD7E7042E15D0082E13D0BEF1120F2A
:100C6C0010D0C46A022C1C6814BF24F4806444F4B1
:100C7C0080641C60002405945C6905949C6905944F
:100C8C00059CDEE71C6824F480641C600024069438
:100C9C005C6906949C690694069CB3E7448DA4B2E7
:100CAC00022C23D1C46A0026022C1C6814D044F4F4
:100CBC0000641C6007965C6907949C690794079C08
:100CCC001C6824F480641C605C682705B9D55C68DA
:100CDC0044F480545C60B4E744F480641C6008966F
:100CEC005C6908949C690894089CEDE71C6844F4C2
:100CFC0080641C605C68260542BF5C6844F48054C8
:100D0C005C60002409945C6909949C690994099CB1
:100D1C0097E700240A945C690A949C690A940A9CDB
:100D2C00D6E600BF040010000400010080000100A2
:100D3C000800010002000100212A03D0402918D12B
:100D4C00222A16D1428D92B222B95A6822F48062BC
:100D5C005A600EE090F83E20402A28D1026D82B9EC
:100D6C00C26C012A826C06D1D2B21A61036D0233B5
:100D7C0003650DB0F0BDC2F307221A61036D013398
:100D8C00F6E7026D012A02D1826CD2B2F5E7026D50
:100D9C00022AEED190F83D20222A04D11A6842F49E
:100DAC0080721A60E5E790F83D20212AE1D1426A71
:100DBC00511C416212781A6199E0002CD9D094052B
:100DCC00D7D5C16A90F83D20212AD2D1428D92B25A
:100DDC00002AECD104290DD008290BD011F5803F45
:100DEC0008D0596821F4E06159601123036380F83D
:100DFC003E209FE65A6822F4E0625A601A6842F478
:100E0C0000721A6000232022036380F83D2090F8C2
:100E1C003E2080F83E30402A7FF48FAEFFF7A3FDD2
:100E2C00A7E78F4D0D40002D46D0510544D5002C21
:100E3C0042D190F83D20222A9BD1428D92B2032AB6
:100E4C0005D9426A1B69511C416213704FE0023A8A
:100E5C00012AC26A0DD8022A1A681DBF22F48062C8
:100E6C001A601A6842F4806218BF42F400621A6079
:100E7C006BE7022A1A6814BF22F4806242F4806283
:100E8C001A605A6822F4E0625A60426A1B69511C6B
:100E9C0041621370438D013B9BB24385202380F844
:100EAC003D300023036390F83E2080F83E30402A0A
:100EBC0051D1FFF759FD5CE7002C3FF45AAF970571
:100ECC007FF557AFC26A418D89B20329416A13D1AC
:100EDC00042A04D0082A02D012F5803F03D11A68E4
:100EEC0022F480621A601B694A1C42620B70438DAB
:100EFC00013B9BB243853CE7448DA4B2022CF2D15A
:100F0C00042A1FD0082A1DD012F5803F1AD0022ABD
:100F1C001A6814BF22F4806242F480621A605A6824
:100F2C0022F440725A601B694A1C42620B70438D5A
:100F3C00013B9BB24385436A5A1C426202681269A8
:100F4C001A70A7E75A6822F440725A601A6842F481
:100F5C0000721A60E7E7FFF705FD0AE7414C0C4009
:100F6C0074B196050CD599699B6981F004011D0635
:100F7C00C1F3800154BF8289028B01F0B5F9F8E608
:100F8C00394C0C40002C73D0940571D590F83D2051
:100F9C005968D2B221F4E061596000210B91596972
:100FAC000B91196841F0010119600B99196821F432
:100FBC0080611960596809050CD590F83D102229FB
:100FCC0003D090F83D102A2929D1816B0968496812
:100FDC0089B24185418D89B2E1B159694F0708D574
:100FEC00416A1B694C1C44620B70438D013B9BB2E4
:100FFC00438501684B695E0608D5436A09695C1C28
:10100C0044621970438D013B9BB24385036C43F0E2
:10101C0004030364036C23B1FFF7A8FCA9E6416B3E
:10102C00D4E7A2F1280102290AD8104AC262202270
:10103C00036380F83D2080F83E3001F078F998E6A3
:10104C00036B222B02D0222A7FF493AE00232022A2
:10105C00036380F83D2080F83E3001F07FF988E68C
:10106C004000010002000100100001000000FFFF21
:10107C00394E3A4C2E400C40002E36D0384D0D4097
:10108C003DB3550525D524BB90F83D10428DC9B212
:10109C0092B2002A3FF46DAE426A541C446212783C
:1010AC001A61428D013A92B24285428D92B2002A67
:1010BC007FF45FAE29297FF45CAE5A6822F480621B
:1010CC005A6021230363282380F83D3001F058F93E
:1010DC004FE6002C3FF44DAE94057FF54AAE428DA1
:1010EC0092B2002A7FF463AE43E61E4D0D4035B339
:1010FC00510524D51CBB90F83D20418DD2B289B24C
:10110C0000293FF436AE416A1B694C1C44620B70DB
:10111C00438D013B9BB24385438D9BB2002B7FF4E7
:10112C0028AE2A2A7FF425AE0268536823F4806324
:10113C00536022230363282380F83D308DE7002C75
:10114C003FF417AE92057FF514AE428D92B2002A91
:10115C007FF477AE0DE600BF040010000400010020
:10116C008000010040000100F8B503684B4A5E693D
:10117C00044616425D680CD0E8050AD5226C42F094
:10118C00010222646FF480725A611A6842F40042C0
:10119C001A6016F4813F08D0E90506D5226C42F09E
:1011AC00020222646FF400725A6116F4823F36D048
:1011BC00EA0534D594F83E70618D94F83D20202FCB
:1011CC0089B2D2B2206B58D1002956D102F0F70166
:1011DC00212903D0282A50D121284ED194F83D2022
:1011EC00E16AD2B2042901D008292CD1282A2AD1AB
:1011FC002B4A2046E2625A6822F4E0625A606FF48D
:10120C0080625A611A6822F480621A6000232022DC
:10121C00236384F83D2084F83E3001F088F816F4FE
:10122C00843F09D0EB0507D56FF40062236C43F0C3
:10123C000803236423685A61236C73B32046BDE80A
:10124C00F840FFF793BB212A23D115492046E162D0
:10125C002263202284F83D20002284F83E205A6824
:10126C0022F4E0625A606FF480625A611A6822F4C8
:10127C0080621A6001F084F8D1E7226C42F004021B
:10128C00226494F83E20102A02BF1A6842F40072BD
:10129C001A606FF480625A61C1E7F8BD0001010069
:1012AC000000FFFF406A08B50368416B1A6822F41E
:1012BC0080621A60002242854A63816B4A6390F80F
:1012CC003D1060294FF0200180F83D1080F83E2041
:1012DC0007D102641A6822F001021A60FFF745FB7D
:1012EC0008BD1A6822F001021A6001F04DF808BD21
:1012FC0003682DE9F341DB07054610D42B689F07E3
:10130C005ED42B68190700F195802B685A0700F101
:10131C00BF80EA69002A40F02D81002014E0904C37
:10132C00636803F00C03042B07D0636803F00C0311
:10133C00082B0CD16368DE0309D523689C03DDD52B
:10134C006B68002BDAD1012002B0BDE8F0816B682C
:10135C00B3F5803F10D1236843F480332360FFF74B
:10136C00A1F8064623689803C8D4FFF79BF8801BA6
:10137C006428F7D90320E7E79BB9236823F480336B
:10138C002360236823F480232360FFF78BF8064641
:10139C0023689903B2D5FFF785F8801B6428F7D929
:1013AC00E8E7B3F5A02F236803D143F4802323602F
:1013BC00D1E723F480332360236823F48023CDE723
:1013CC00674C636813F00C0F07D0636803F00C03D1
:1013DC00082B10D16368DA030DD423689B0702D560
:1013EC002B69012BAFD123686A6923F0F80343EA18
:1013FC00C203236085E72A695A4B6AB101221A603D
:10140C00FFF750F8064623689F07ECD4FFF74AF81D
:10141C00801B0228F7D9ADE71A60FFF743F80646A0
:10142C00236898077FF56DAFFFF73CF8801B022807
:10143C00F6D99FE7AA694A4C4B4BDAB101221A60E4
:10144C00FFF730F80646636A9B070DD54FF4FA5246
:10145C00464B1B68B3FBF2F3019300BF019B5A1E72
:10146C000192002BF9D150E7FFF71CF8801B0228E2
:10147C00E9D97FE71A60FFF715F80646636A9F07FC
:10148C007FF543AFFFF70EF8801B0228F6D971E702
:10149C00334CE369D80024D40127E36943F080532B
:1014AC00E361E36903F080530093009B304E336893
:1014BC00D90518D5EB68012B26D1236A43F001031B
:1014CC002362FEF7EFFF41F288368046236A9B07C2
:1014DC003FD5002F3FF41DAFE36923F08053E36148
:1014EC0017E70027E2E7336843F480733360FEF7B5
:1014FC00D9FF80463368DA05DCD4FEF7D3FFA0EBC6
:10150C0008006428F6D935E7ABB9236A41F288386C
:10151C0023F001032362236A23F004032362FEF702
:10152C00C1FF0646236A9807D3D5FEF7BBFF801B85
:10153C004045F7D91EE7052B236A03D143F004037A
:10154C002362BAE723F001032362236A23F0040326
:10155C00B6E7FEF7A7FFA0EB0800B042B6D909E743
:10156C000010024000004242800442420C00002065
:10157C0000700040224C636803F00C03082B3FF40E
:10158C00E2AE00231F4E022A33602BD1FEF78AFFF6
:10159C000746236899011FD42B6AB3F5803F05D108
:1015AC006268A96822F400320A436260696A626860
:1015BC000B4322F474121343636001233360FEF770
:1015CC0071FF054623689A013FF5A7AEFEF76AFF47
:1015DC00401B0228F6D9CDE6FEF764FFC01B02289B
:1015EC00D7D9C7E6FEF75EFF054623689B017FF55A
:1015FC0094AEFEF757FF401B0228F6D9BAE600BF9F
:10160C00001002406000424230B5194B87B002AC6A
:10161C0003F11005224618685968083303C2AB421F
:10162C001446F7D101238DF80430022311498DF8AB
:10163C0005304B6803F00C02082A17D1C3F3834220
:10164C0006A80244DB0312F8102C0CD54B680A4890
:10165C00C3F34043504306AA134413F8143CB0FBA5
:10166C00F3F007B030BD05485043FAE70248F8E7FD
:10167C00B02600080010024000127A0000093D005C
:10168C004D4A2DE9F0411368054603F007038B42E0
:10169C000E4628D32A68910732D4D20738D4464A4A
:1016AC00136803F007039E4273D32A68434C12F06D
:1016BC00040F79D1130706D563682A6923F46053A4
:1016CC0043EAC2036360FFF79FFF63683C4AC3F3BE
:1016DC000313D35CD8403B4B18600F20FEF7A0FEE1
:1016EC000020BDE8F081136823F007030B4313605F
:1016FC00136803F007039942CCD00120BDE8F081B8
:10170C002E49A8684B6823F0F00303434B60C4E7F1
:10171C006A682A4C012A23681CD113F4003FECD0D0
:10172C00636841F2883823F0030313436360FEF7C8
:10173C00B9FE6B680746012B14D1636803F00C03E8
:10174C00042BACD0FEF7AEFEC01B4045F5D90320F0
:10175C00BDE8F081022A02D113F0007FDFE713F01D
:10176C00020FDCE7022B0FD1636803F00C03082B8C
:10177C0095D0FEF797FEC01B4045F5D9E7E7FEF77D
:10178C0091FEC01B4045E2D8636813F00C0FF6D1F4
:10179C0085E7136823F0070333431360136803F0E2
:1017AC0007039E42A9D180E76368E96823F4E063EC
:1017BC000B4363607EE700BF002002400010024034
:1017CC00CB2800080C000020014B1868704700BFA4
:1017DC000C00002003682DE9F341D907054620D5FC
:1017EC00354CE369DA0032D40127E36943F08053C6
:1017FC00E361E36903F080530193019B2F4E33683F
:10180C00DB0526D5236A13F4407336D1236A6A6844
:10181C0023F44073134323621FB1E36923F0805315
:10182C00E3612868830706D5234AA968536823F423
:10183C0040430B43536010F010001BD01E4AE96864
:10184C005368002023F480030B43536012E00027FD
:10185C00D4E7336843F480733360FEF723FE80468D
:10186C003368D805CED4FEF71DFEA0EB0800642823
:10187C00F6D9032002B0BDE8F0816A6802F4407228
:10188C009342C3D001200E4A236A1060002023F437
:10189C00407110602162D907B8D5FEF703FE41F202
:1018AC0088380646236A9A07B0D4FEF7FBFD801BE6
:1018BC004045F7D9DDE700BF001002400070004042
:1018CC0040044242036810B51A680446920708D5D2
:1018DC005B689B0705D500F04BFC6FF00202236898
:1018EC005A604FF40032024B5A610123637410BDED
:1018FC0000040140022341F2111210B580F83D3072
:10190C0003680446196A114208D140F24442196A2C
:10191C00114202BF1A6822F001021A60204600F040
:10192C00C9FA002084F83D0084F83C0010BD7047D3
:10193C0070477047036810B51A69044691070ED5B5
:10194C00DA6892070BD56FF002021A6101229B69CB
:10195C0002779B0777D0FFF7EAFF002323772368F2
:10196C001A69500710D5DA6851070DD56FF00402CB
:10197C001A6102229B69227713F4407F204668D0BB
:10198C00FFF7D5FF0023237723681A6912070FD5B9
:10199C00DA6810070CD56FF008021A610422DB69B3
:1019AC002277990720465AD0FFF7C1FF00232377EF
:1019BC0023681A69D20610D5DA68D0060DD56FF0F7
:1019CC0010021A610822DB69227713F4407F20464B
:1019DC004BD0FFF7ACFF0023237723681A69D1079C
:1019EC0008D5DA68D20705D56FF0010220461A61D6
:1019FC0000F053FC23681A69100608D5DA68110642
:101A0C0005D56FF0800220461A6100F0A3F8236818
:101A1C001A69520608D5DA68500605D56FF04002EF
:101A2C0020461A61FFF785FF23681A69910622D5B3
:101A3C00DA6892061FD56FF020022046BDE81040F0
:101A4C001A6100F086B800F01FFC2046FFF770FF0B
:101A5C0083E700F019FC2046FFF76AFF92E700F0DD
:101A6C0013FC2046FFF764FFA0E700F00DFC2046B6
:101A7C00FFF75EFFAFE710BD10B50124036A8C4081
:101A8C0023EA04030362036A8A401A43026210BD0C
:101A9C0010B5044600220068FFF7EEFF2368124AD7
:101AAC0093420DD141F21112196A114208D140F240
:101ABC004442196A114202BF5A6C22F400425A6421
:101ACC0041F21112196A114208D140F24442196ACA
:101ADC00114202BF1A6822F001021A600123002091
:101AEC0084F83D3010BD00BF002C014010B504241B
:101AFC00036A8C4023EA04030362036A8A401A4394
:101B0C00026210BD10B5044600220068FFF7EEFF1C
:101B1C0041F211122368196A114208D140F2444271
:101B2C00196A114202BF5A6C22F400425A6441F203
:101B3C001112196A114208D140F24442196A114239
:101B4C0002BF1A6822F001021A60002010BDFFF7D4
:101B5C00D9BF704770470368DA6822F49072DA6074
:101B6C005A6922F001025A61202380F83A307047FA
:101B7C0090F83930202B18D1A9B1A2B190F8383097
:101B8C00012B12D0C28482840023212201620168BD
:101B9C00C36380F83920CA6880F8383042F080027C
:101BAC00CA6018467047012070470220704790F8B1
:101BBC003A3010B5222B36D183680169B3F5805FBA
:101BCC000268836A23D15268E9B9C2F3080223F888
:101BDC00022B8362C48D013CA4B2C4858CB903680A
:101BEC00DA6822F02002DA60DA6822F48072DA60B5
:101BFC005A6922F001025A61202380F83A3000F031
:101C0C0031FC002010BDD2B223F8012BE1E721B941
:101C1C00591C526881621A70DCE75268591C816247
:101C2C0002F07F02F7E7022010BD0000036870B5D8
:101C3C001A6804461607D9685D6907D196065AD505
:101C4C008D0658D5BDE87040FFF7B1BF15F0010502
:101C5C0002D111F4907F4ED0D30705D5CE0542BFEB
:101C6C00E36B43F00103E363500704D51DB1E36B51
:101C7C0043F00203E363930704D51DB1E36B43F018
:101C8C000403E363160704D51DB1E36B43F00803AB
:101C9C00E363E36B002B66D0950604D5880602D56A
:101CAC002046FFF784FF236820465D69E26B11072D
:101CBC0002D415F040051AD0FFF74DFF23685A697E
:101CCC00520610D55A69606B22F040025A6150B12D
:101CDC00254B4363FEF778FC002844D0606BBDE8CD
:101CEC007040436B1847204600F0F6FB70BD00F0C7
:101CFC00F3FBE56370BD160627D50D0625D594F8C4
:101D0C003920212A2FD1A268B2F5805F226A17D11F
:101D1C001188C1F308015960216979B90232226234
:101D2C00E28C013A92B2E284EAB9DA6822F08002DB
:101D3C00DA60DA6842F04002DA6070BD0132EEE738
:101D4C00511C216212785A60EAE750060BD54A06FC
:101D5C0009D5DA68204622F04002DA60202384F8A4
:101D6C00393000F093FB70BD791D000808B50023D5
:101D7C00406AC385C38400F0AFFB08BD90F83920DE
:101D8C0090F83A0010437047C0F3031351F8233016
:101D9C0000F00F0023FA00F000F00100704701235F
:101DAC00C0F3031200F00F0003FA00F051F82230D8
:101DBC00034341F8223070470123C0F3031200F0B3
:101DCC000F0003FA00F051F8223023EA000341F827
:101DDC002230704704289ABF024B53F82000002091
:101DEC00704700BFB428000886B0042841D8DFE84B
:101DFC0000F003101C2834001F4B20489A6942F055
:101E0C0004029A619B6903F004030193019B06B0E1
:101E1C007047194B1A489A6942F008029A619B69FB
:101E2C0003F008030293029BF1E7134B15489A69E0
:101E3C0042F010029A619B6903F010030393039B19
:101E4C00E5E70D4B10489A6942F020029A619B69B4
:101E5C0003F020030493049BD9E7074B0B489A69C2
:101E6C0042F040029A619B6903F040030593059B85
:101E7C00CDE70020CBE700BF001002400008014076
:101E8C00000C0140001001400014014000180140FA
:101E9C0008B5064900F058F9C0F3C43002380228DE
:101EAC009ABF034B185C002008BD00BFC026000879
:101EBC00C828000800F0BAB930B5124991B00546EF
:101ECC0000F01EF90090B8B12846FFF7E1FF182882
:101EDC00044611D80C4BC340DB070DD509492846E5
:101EEC0000F032F910F4801F2146684606D0FFF747
:101EFC002EFE6846FFF7FEFC11B030BDFFF7C8FDA3
:101F0C00F7E700BFC026000811110001FEF7CABA9E
:101F1C00704708B5FEF7BAFAFEF751FBFFF7F8FF6A
:101F2C0008BD0000F0B50446012587B0C0F30310CE
:101F3C000F461646FFF758FFE3B203F00F02954029
:101F4C0003220592144A029503970496916941F075
:101F5C0001019161926902F001020192019AA3F1CF
:101F6C000D02012A0AD80D494A6822F0E06242F0BB
:101F7C0080624A60133B012B09D801E00F2CF9D188
:101F8C00064A536823F0E06343F00073536002A9E0
:101F9C00FEF762FB07B0F0BD0010024000000140EC
:101FAC0089B202B10122FEF737BC08B5FEF75CFA24
:101FBC00BDE80840FEF7F7B8064838B5A0F5A074A0
:101FCC00A0F114051038FEF703FAA5422846F7D104
:101FDC0038BD00BF700200200023012803F101026C
:101FEC0002D040081346F8E71421DBB24B43044AF5
:101FFC00181D1044816811B11A44136918477047B1
:10200C00300100200120FEF70DBC0220FEF70ABCB7
:10201C000420FEF707BC0820FEF704BC1020FEF7D6
:10202C0001BC38B505242025A8B2FEF7FBFB013C0A
:10203C004FEA4505F8D138BD38B506244FF4806514
:10204C00A8B2FEF7EFFB013C4FEA4505F8D138BDCD
:10205C000622224B00201A7007221A75082283F8D8
:10206C002820092283F83C200A2283F850201722CA
:10207C0083F8642083F8782083F88C2083F8A020E0
:10208C0083F8B4202822D86083F8C82083F8DC2099
:10209C0083F8F02083F8042183F8182183F82C218D
:1020AC00186258639864D8651867C3F88400C3F83D
:1020BC009800C3F8AC00C3F8C000C3F8D400C3F850
:1020CC00E800C3F8FC00C3F81001C3F82401C3F8FE
:1020DC003801034A034900F0A1BA00BF30010020C7
:1020EC0000000020C51F000891F900305A1C01D1D6
:1020FC0000207047834201D1486870470C31F3E7E8
:10210C00431C01D0FFF7F0BF002070474B6813B998
:10211C004FF0FF307047834202D191F900007047B5
:10212C000C31F3E708B1FFF7F1BF4FF0FF30704708
:10213C0091F900305A1C01D118467047834201D1E5
:10214C00886870470C31F3E7431C01D0FFF7F0BFF0
:10215C007047431C04D00C3111F90C3C5A1C01D1B2
:10216C0000207047984201F10C01F5D10120704715
:10217C00034B1B6813B1034A10681847704700BF24
:10218C0070020020880200200148FFF79BBB00BFB3
:10219C0074020020002103E00B4B5B5843500431C8
:1021AC000A480B4B42189A42F6D30A4A02E0002323
:1021BC0042F8043B084B9A42F9D300F011F800F0B6
:1021CC0041FAFEF71BF97047F028000800000020C8
:1021DC0010000020100000207C030020FEE700000F
:1021EC000F4B1A6842F001021A6059680D4A0A40F6
:1021FC005A601A6822F0847222F480321A601A68CB
:10220C0022F480221A605A6822F4FE025A604FF4BB
:10221C001F029A604FF00062034B9A60704700BF38
:10222C00001002400000FFF800ED00E00368124AC5
:10223C00934206D102F56442936923F400639361DF
:10224C007047B3F1804F05D10C4AD36923F00103D9
:10225C00D36170470A4A934205D102F50332D36920
:10226C0023F00203F4E7074A9342F2D102F502325B
:10227C00D36923F00403EBE7002C0140001002406B
:10228C000004004000080040836C2BB1027F012A3F
:10229C0002D1002104381847704703465B6C0438A0
:1022AC0003B1184770470000024B186808B1FFF7DC
:1022BC0041BB70478C020020024B586808B1FFF7F5
:1022CC0039BB70478C020020024B986808B1FFF7AD
:1022DC0031BB70478C020020024BD86808B1FFF765
:1022EC0029BB70478C020020C36810B59A42044683
:1022FC001CD171B9436E80F8581003B1984794F80B
:10230C00882004F168012046BDE810400823FEF740
:10231C0095BA00230122C36580F85820C16D0223B1
:10232C00BDE8104001446831FEF7C4BA10BD036E1D
:10233C0010B5044643B190F85820012A04D1C26D5F
:10234C0012B1C16D68309847022384F858300023CD
:10235C002046E365BDE81040FEF7E8BAC36D1F2BBD
:10236C00DEBFC36D0133C36590F85820D2B2012A89
:10237C0005D1C16D022301446831FEF79BBA704749
:10238C00002380F88830704790F859300BB9FEF76D
:10239C00CDBA7047014B1868FEF77CBBE4020020F5
:1023AC00014B1868FEF7E0BEE4020020014B5868B0
:1023BC00FEF770BBE4020020014B5868FEF7D4BE58
:1023CC00E402002008B5074B90F8442053F8220093
:1023DC00FFF7D4FC00F02100A0F121035842584132
:1023EC0008BD00BF3C03002010B5044600B390F8B4
:1023FC004430104A42F823100F4A002142F82300BF
:10240C00022290F95A00FEF765F894F95A00FEF78B
:10241C0095F8B4F86A30616E9BB294F84400194494
:10242C00064B0122BDE8104053F82000FFF7A0BB7B
:10243C0010BD00BF14030020280300203C03002023
:10244C0010B548B10023064951F82340DAB2A04236
:10245C0003D00133052BF7D10522104610BD00BF68
:10246C003C03002010B5FFF7EBFF042808D8BDE8AB
:10247C001040044B044A53F8203052F820001847FF
:10248C0010BD00BFEC0200200003002010B5FFF7C8
:10249C00D7FF042818D80D4B53F820400C4B53F899
:1024AC0020302046984701300ED0B4F86A30616E67
:1024BC009BB294F844001944064B0122BDE810402D
:1024CC0053F82000FFF754BB10BD00BF28030020B9
:1024DC00140300203C030020036882B01A68D20762
:1024EC0002D55B68019308E01A689007F9D41A6862
:1024FC005107F6D41A681207F3D4019B02B0704747
:10250C0008B52520FEF73EF8024B1868BDE80840D8
:10251C00FFF78CBB3C03002008B52620FEF732F8F1
:10252C00024B5868BDE80840FFF780BB3C03002015
:10253C0008B52720FEF726F8034B986818B1BDE8BC
:10254C000840FFF773BB08BD3C030020222838B5B8
:10255C000D462CD8164B1C56631C28D0154920460A
:10256C00FFF712FC58B114492046FFF7F2FD10B1E9
:10257C002046FFF7A1FC0F492046FFF71DFC032D59
:10258C0008D8DFE805F002110D0F002200212046CB
:10259C00FFF7C8FC2046BDE838400849FFF7FFBBF1
:1025AC000122F3E70222F1E700220121EFE738BD17
:1025BC007028000850030020C02600086403002087
:1025CC00222838B50D4615D80B4B1C56631C11D060
:1025DC000A492046FFF7D8FB60B1C4F30310FFF79C
:1025EC00F9FB012104F00F042A46A140BDE8384054
:1025FC00FFF7D6BC38BD00BF70280008640300206C
:10260C0038B5044648B1FFF781FC0546FDF7EBFEF3
:10261C00FFF77CFC401B8442F8D838BD0B460146C2
:10262C00184600F001B8000010B5054C13462CB14B
:10263C000A4601460220AFF3008010BD204610BDB3
:10264C000000000070B500250C4E0D4CA41BA4100E
:10265C00A54209D100F01AF800250A4E0A4CA41B19
:10266C00A410A54205D170BD56F825309847013508
:10267C00EEE756F8253098470135F2E7DC280008DC
:10268C00DC280008DC280008EC280008F8B500BF9E
:10269C00F8BC08BC9E467047F8B500BFF8BC08BC37
:0426AC009E4670478F
:1026B00002030405060708090A0B0C0D0E0F101083
:1026C0000000000000000040128000000100000037
:1026D0000000004012000100020000000000004065
:1026E0001280010003000000000000401200020000
:1026F00006000000000400401280000007000000F7
:10270000000400401200010008000000002C0140FD
:102710001280000009000000002C0140120001009E
:102720000A000000002C0140128001000B00000094
:10273000002C0140120002000F00000000000040C9
:10274000128F000010000000000400401280010001
:1027500011000000000400401200020013000000FD
:1027600000000040120F01001400000000040040AF
:102770001294000015000000000400401214010033
:102780001600000000080040128000001700000042
:10279000000800401200010018000000000800407E
:1027A0001280010019000000000800401200020021
:1027B0001A00000000000040128F01001B00000002
:1027C00000000040120F02001D000000002C01401C
:1027D000128010001E000000002C014012001100A9
:1027E0001F000000002C014012801100FF000000BB
:1027F0000000000000000000030000000044004052
:10280000100000000A000000003801401000000025
:102810001700000000380140100500001B000000F8
:102820000048004010000000FF0000000000000011
:102830000000000002000000004400401200000000
:1028400009000000003801401200000016000000DE
:1028500000380140120500001A0000000048004046
:1028600012000000FF000000000000000000000057
:10287000191817161514130F0C0B0A09081F1E1D23
:102880001C2D2E2F000102030405060710111A1B30
:10289000120D0E000000000000000000AD02000854
:1028A000B10300085B020008850200086B02000803
:1028B000ED02000800080140000C0140001001403A
:1028C000001401400018014004080C000000000042
:0C28D000000000010203040607080900D4
:1028DC00F703000831010008A10300085D2000087F
:0428EC000D010008D2
:1028F00000000000010000001000000000A24A04D7
:04000005080021A12D
:00000001FF
